:100000000C9462000C94B8030C9491030C948A0035
:100010000C948A000C948A000C948A000C948A0038
:100020000C948A000C948A000C948A000C948A0028
:100030000C948A000C948A000C948A000C948A0018
:100040000C9447030C948A000C9405040C94DF0371
:100050000C948A000C948A000C948A000C948A00F8
:100060000C948A000C948A000000000023002600F3
:10007000290000000000240027002A0000000000E2
:10008000250028002B0004040404040404040202D4
:100090000202020203030303030301020408102007
:1000A0004080010204081020010204081020000012
:1000B0000008000201000003040700000000000027
:1000C0000000490611241FBECFEFD8E0DEBFCDBF30
:1000D00011E0A0E0B1E0EAE9F3E102C005900D9281
:1000E000AE32B107D9F722E0AEE2B1E001C01D9215
:1000F000A431B207E1F710E0C2E6D0E004C02197D6
:10010000FE010E94C706C136D107C9F70E94370415
:100110000C94CB090C940000833081F028F48130DA
:1001200099F08230A1F008958730A9F08830B9F0B5
:100130008430D1F4809180008F7D03C08091800055
:100140008F7780938000089584B58F7702C084B53F
:100150008F7D84BD08958091B0008F7703C080911A
:10016000B0008F7D8093B00008951F93CF93DF93ED
:10017000282F30E0F901E255FF4F8491F901E6564E
:10018000FF4FD491F901EA57FF4FC491CC23C1F03E
:10019000162F81110E948C00EC2FF0E0EE0FFF1F54
:1001A000E458FF4FA591B4919FB7F894111104C082
:1001B0008C91D095D82302C0EC91DE2BDC939FBFAD
:1001C000DF91CF911F910895CF93DF9390E0FC01D1
:1001D000E656FF4F2491FC01EA57FF4F8491882394
:1001E00061F190E0880F991FFC01EE58FF4FC59117
:1001F000D491FC01E458FF4FA591B491611109C05D
:100200009FB7F8948881209582238883EC912E23D0
:100210000BC0623061F49FB7F8948881322F30951B
:1002200083238883EC912E2B2C939FBF06C08FB71E
:10023000F894E8812E2B28838FBFDF91CF9108950A
:100240003FB7F8948091730190917401A09175016A
:10025000B091760126B5A89B05C02F3F19F00196F5
:10026000A11DB11D3FBFBA2FA92F982F8827820F3C
:10027000911DA11DB11DBC01CD0142E0660F771F8C
:10028000881F991F4A95D1F708950895CF92DF925C
:10029000EF92FF920F931F93CF93DF936C017A013C
:1002A0008B01C0E0D0E0CE15DF0581F0D8016D9163
:1002B0008D01D601ED91FC910190F081E02DC601F8
:1002C0000995892B11F02196EECF7E01C701DF91B0
:1002D000CF911F910F91FF90EF90DF90CF900895F5
:1002E000089580E090E00895FC01538D448D252F02
:1002F00030E0842F90E0821B930B541710F0CF96C0
:10030000089501970895FC01918D828D981761F0F1
:10031000828DDF01A80FB11D5D968C91928D9F5F3C
:100320009F73928F90E008958FEF9FEF0895FC01E7
:10033000918D828D981731F0828DE80FF11D858D9A
:1003400090E008958FEF9FEF0895FC01918D228D2D
:10035000892F90E0805C9F4F821B91098F739927B2
:10036000089587E791E00E94A50121E0892B09F417
:1003700020E0822F0895FC01848DDF01A80FB11DBC
:10038000A35ABF4F2C91848D90E001968F739927CB
:10039000848FA689B7892C93A089B1898C918370A9
:1003A00080648C93938D848D981306C00288F389A2
:1003B000E02D80818F7D80830895EF92FF920F93CF
:1003C0001F93CF93DF93EC0181E0888F9B8D8C8D01
:1003D000981305C0E889F989808185FD26C0F62E2D
:1003E0000B8D10E00F5F1F4F0F731127E02E8C8DC8
:1003F000E8120CC00FB607FCFACFE889F9898081B2
:1004000085FFF5CFCE010E94BB01F1CF8B8DFE01A0
:10041000E80FF11DE35AFF4FF0829FB7F8940B8F5E
:10042000EA89FB89808180620AC09FB7F894EE89CF
:10043000FF896083E889F989808183708064808383
:100440009FBF81E090E0DF91CF911F910F91FF90CE
:10045000EF900895CF93DF93EC01888D8823C9F046
:10046000EA89FB89808185FD05C0A889B9898C91BD
:1004700086FD0FC00FB607FCF5CF808185FFF2CF58
:10048000A889B9898C9185FFEDCFCE010E94BB016F
:10049000E7CFDF91CF91089580E090E0892B29F09C
:1004A0000E94B10181110C94000008958F929F92D7
:1004B000AF92BF92CF92DF92EF92FF92CF93DF93F2
:1004C000E0EBF0E08491ECE9F0E0D491E8E8F0E0D2
:1004D000C491CC2379F081110E948C00EC2FF0E0C4
:1004E000EE0FFF1FE859FF4FA591B491EC91ED235A
:1004F00009F0AEC08FB7F894C0906F01D090700132
:10050000E0907101F09072018FBF80912E01909167
:100510002F01A0913001B0913101A7019601281B54
:10052000390B4A0B5B0B263031054105510508F4A8
:100530008FC0C0922E01D0922F01E0923001F09234
:1005400031018091370190913801019690933801E3
:100550008093370180916D0190E001966AE070E030
:100560000E94760680936D01E0916D0124E0E29F88
:10057000F0011124EF5BFE4F80819181A281B38154
:1005800046015701881A990AAA0ABB0A21E030E0FD
:10059000CAE0D0E049EE841643E09406A104B10419
:1005A000D8F180916D012A303105D9F0A901480FA9
:1005B000511DCA01BE010E947606FC01EE0FFF1F0D
:1005C000EE0FFF1FEF5BFE4F80819181A281B3810F
:1005D00046015701881A990AAA0ABB0A2F5F3F4FA2
:1005E000D9CF90E00896B9010E947606FC01EE0F83
:1005F000FF1FEE0FFF1FEF5BFE4F80819181A281F5
:10060000B381A7019601281B390B4A0B5B0B60ECE9
:1006100074ED81E090E00AC0ABE0B0E0A21BB1094C
:1006200020E63AEE0E94AC06A50194010E948A06DB
:100630003093400120933F01E0916D0154E0E59F2C
:10064000F0011124EF5BFE4FC082D182E282F3827F
:10065000DF91CF91FF90EF90DF90CF90BF90AF9060
:100660009F908F900895009769F0FC010190002001
:10067000E9F73197AF01481B590BBC0187E791E0BF
:100680000C94460180E090E008950E94DC061F92E1
:100690000F920FB60F9211242F933F938F939F9336
:1006A000AF93BF9380916F0190917001A091710100
:1006B000B091720130916E0123E0230F2D3720F4A9
:1006C0000196A11DB11D05C026E8230F0296A11DAC
:1006D000B11D20936E0180936F0190937001A093E0
:1006E0007101B09372018091730190917401A09196
:1006F0007501B09176010196A11DB11D8093730122
:1007000090937401A0937501B0937601BF91AF915E
:100710009F918F913F912F910F900FBE0F901F903F
:1007200018951F920F920FB60F9211242F933F939B
:100730004F935F936F937F938F939F93AF93BF93E9
:10074000EF93FF93E0910201F09103010995FF916E
:10075000EF91BF91AF919F918F917F916F915F9139
:100760004F913F912F910F900FBE0F901F901895B2
:100770001F920F920FB60F9211242F933F934F9316
:100780005F936F937F938F939F93AF93BF93EF93F9
:10079000FF93E0910001F09101010995FF91EF9124
:1007A000BF91AF919F918F917F916F915F914F9189
:1007B0003F912F910F900FBE0F901F9018951F9291
:1007C0000F920FB60F9211242F933F934F935F9385
:1007D0006F937F938F939F93AF93BF93EF93FF9309
:1007E00087E791E00E94BB01FF91EF91BF91AF912C
:1007F0009F918F917F916F915F914F913F912F9139
:100800000F900FBE0F901F9018951F920F920FB66A
:100810000F9211242F938F939F93EF93FF93E09167
:100820008701F09188018081E0918D01F0918E0126
:1008300082FD12C09081809190018F5F8F73209113
:100840009101821751F0E0919001F0E0E958FE4FDC
:10085000958F8093900101C08081FF91EF919F91CE
:100860008F912F910F900FBE0F901F901895CF93DF
:10087000DF93CDB7DEB72F970FB6F894DEBF0FBE6C
:10088000CDBF789484B5826084BD84B5816084BD19
:1008900085B5826085BD85B5816085BD80916E001E
:1008A000816080936E00109281008091810082604F
:1008B000809381008091810081608093810080918C
:1008C00080008160809380008091B100846080937B
:1008D000B1008091B00081608093B00080917A0077
:1008E000846080937A0080917A00826080937A009D
:1008F00080917A00816080937A0080917A0080688C
:1009000080937A001092C100E0918701F0918801F4
:1009100082E08083E0918301F09184011082E09174
:100920008501F09186018FEC808310928F01E09118
:100930008B01F0918C0186E08083E0918901F09138
:100940008A01808180618083E0918901F0918A0130
:10095000808188608083E0918901F0918A018081A3
:1009600080688083E0918901F0918A0180818F7D88
:10097000808361E083E00E94E40061E083E00E9404
:10098000B50062E082E00E94E40061E08DE00E9438
:10099000E40061E082E00E94B50080E090E0DC01CC
:1009A000FC01EE0FFF1FEE0FFF1FEF5BFE4F80837A
:1009B0009183A283B3830196A11DB11D8A30910555
:1009C000A105B10569F720913F0130914001809167
:1009D0003701909138013F932F939F938F9386E136
:1009E00091E09F938F938E010F5F1F4F1F930F9383
:1009F0000E94E106C8010E9433030E9420014B01BE
:100A00005C010FB6F894DEBF0FBECDBF38EEC32E2B
:100A100033E0D32EE12CF12C0E942001DC01CB012C
:100A200088199909AA09BB09883E9340A105B10517
:100A300098F331E0C31AD108E108F10848EE840EBA
:100A400043E0941EA11CB11CC114D104E104F104C3
:100A500019F7C8010E94330386E592E090930101E3
:100A600080930001809169008C7F8260809369008F
:100A7000E89A90E6492E9AEE592E612C712C22E2CA
:100A8000222E21E0322E8FB7F894C0906F01D090C3
:100A90007001E0907101F09072018FBFE0916D01E3
:100AA00084E0E89FF0011124EF5BFE4F808191818B
:100AB000A281B381A7019601281B390B4A0B5B0B5E
:100AC000DA01C901853F9140A105B10508F44BC089
:100AD000E0916D0144E0E49FF0011124EF5BFE4FD3
:100AE00080819181A281B381A7019601281B390BD6
:100AF0004A0B5B0BDA01C901893E9340A105B105A0
:100B000028F01092400110923F012DC0E0916D013C
:100B100044E0E49FF0011124EF5BFE4F8080918060
:100B2000A280B38080916D0190E009966AE070E048
:100B30000E947606FC01EE0FFF1FEE0FFF1FEF5B1A
:100B4000FE4F80819181A281B381A5019401281B70
:100B5000390B4A0B5B0BC301B2010E948A0630932A
:100B6000400120933F0120913F013091400180914D
:100B70003D0190913E018217930740F480913F011F
:100B80009091400190933E0180933D018091390105
:100B900090913A01A0913B01B0913C01B701A601AF
:100BA000481B590B6A0B7B0B4B3F510561057105C7
:100BB000D8F0209137013091380180913501909122
:100BC00036012817390791F520913F0130914001F6
:100BD00080913301909134012817390739F549384C
:100BE00053416105710510F587E791E00E94A50169
:100BF00018161906C4F487E791E00E9483018093D8
:100C00003201803331F460E08DE00E94B50060E095
:100C100007C0813341F461E08DE00E94B50061E0DE
:100C200082E00E94B5000E944C022DCF80913701D6
:100C300090913801909336018093350180913F0166
:100C4000909140019093340180933301C092390117
:100C5000D0923A01E0923B01F0923C0120913F0199
:100C60003091400180913701909138013F932F934B
:100C70009F938F933F922F921F930F930E94E106B1
:100C8000C8010E9433030FB6F894DEBF0FBECDBF7C
:100C9000ABCFE7E7F1E01382128288EE93E0A0E0A9
:100CA000B0E084839583A683B78388E091E0918345
:100CB000808385EC90E09587848784EC90E097872B
:100CC000868780EC90E0918B808B81EC90E0938B19
:100CD000828B82EC90E0958B848B86EC90E0978BF6
:100CE000868B118E128E138E148E089597FB072E0D
:100CF00016F4009407D077FD09D00E94B30607FCD4
:100D000005D03EF4909581959F4F0895709561951B
:100D10007F4F0895A1E21A2EAA1BBB1BFD010DC037
:100D2000AA1FBB1FEE1FFF1FA217B307E407F5079B
:100D300020F0A21BB30BE40BF50B661F771F881F77
:100D4000991F1A9469F760957095809590959B010D
:100D5000AC01BD01CF0108950E94CD06B7FF0895F3
:100D6000821B930B0895AA1BBB1B51E107C0AA1F4E
:100D7000BB1FA617B70710F0A61BB70B881F991F3C
:100D80005A95A9F780959095BC01CD010895EE0F75
:100D9000FF1F0590F491E02D0994A29FB001B39F2D
:100DA000C001A39F700D811D1124911DB29F700D74
:100DB000811D1124911D089581E090E0F8940C9418
:100DC000CB09AEE0B0E0E7EEF6E00C94A2090D89A5
:100DD0001E8986E08C831A8309838FEF9FE79E83A9
:100DE0008D83AE01475E5F4F6F89788DCE0101968E
:100DF0000E940307EF81F885E00FF11F10822E9605
:100E0000E4E00C94BE09ABE0B0E0E9E0F7E00C945C
:100E100094096C017B018A01FC011782168283818F
:100E200081FFCCC1CE0101963C01F6019381F7010F
:100E300093FD859193FF81917F01882309F4BAC1C5
:100E4000853239F493FD859193FF81917F0185323D
:100E500029F4B60190E00E94FA08E7CF912C212CEA
:100E6000312CFFE1F315D8F08B3279F038F4803271
:100E700079F08332A1F4232D20611DC08D3261F001
:100E8000803369F4232D216016C0832D8260382EB3
:100E9000E32DE4603E2E2AC0F32DF8601DC037FC20
:100EA0002DC020ED280F2A3040F08E32B9F436FCE8
:100EB00081C1232D2064322E19C036FE06C08AE07F
:100EC000989E200D1124922E11C0EAE02E9E200D36
:100ED0001124222EF32DF0623F2E08C08C3621F40F
:100EE000832D8068382E02C0883641F4F70193FDC7
:100EF000859193FF81917F018111B3CF982F9F7DC1
:100F00009554933028F40C5F1F4F9FE399830DC0D5
:100F1000833631F0833771F0833509F059C021C031
:100F2000F801808189830E5F1F4F88248394912C60
:100F3000530113C02801F2E04F0E511CF801A080AC
:100F4000B18036FE03C0692D70E002C06FEF7FEF05
:100F5000C5010E94EF084C018201F32DFF773F2E5F
:100F600016C0280122E0420E511CF801A080B18079
:100F700036FE03C0692D70E002C06FEF7FEFC50140
:100F80000E94E4084C01F32DF0683F2E820133FCEF
:100F90001BC0822D90E088169906B0F4B60180E25D
:100FA00090E00E94FA082A94F4CFF50137FC85916D
:100FB00037FE81915F01B60190E00E94FA0821108E
:100FC0002A9421E0821A91088114910471F7E8C0F3
:100FD000843611F0893641F5F80137FE07C060818B
:100FE0007181828193810C5F1F4F08C06081718184
:100FF000072E000C880B990B0E5F1F4FF32DFF7609
:101000003F2E97FF09C090958095709561957F4F11
:101010008F4F9F4FF0683F2E2AE030E0A3010E94DF
:101020003609882E861845C0853731F4232D2F7E4A
:10103000B22E2AE030E025C0932D997FB92E8F364D
:10104000C1F018F4883579F0B5C0803719F08837C9
:1010500021F0B0C0E92FE061BE2EB4FE0DC0FB2D23
:10106000F460BF2E09C034FE0AC0292F2660B22EBC
:1010700006C028E030E005C020E130E002C020E1F9
:1010800032E0F801B7FE07C06081718182819381EF
:101090000C5F1F4F06C06081718180E090E00E5FA1
:1010A0001F4FA3010E943609882E8618FB2DFF775B
:1010B0003F2E36FE0DC0232D2E7FA22E891458F40C
:1010C00034FE0BC032FC09C0832D8E7EA82E05C0D5
:1010D000B82CA32C03C0B82C01C0B92CA4FE0FC09F
:1010E000FE01E80DF11D8081803321F49A2D997E57
:1010F000A92E09C0A2FE06C0B394B39404C08A2DE1
:10110000867809F0B394A3FC11C0A0FE06C0B21407
:1011100088F4280C922C9B180EC0B21460F4B6010F
:1011200080E290E00E94FA08B394F7CFB21418F46A
:101130002B1802C0982C212CA4FE10C0B60180E30D
:1011400090E00E94FA08A2FE17C0A1FC03C088E745
:1011500090E002C088E590E0B6010CC08A2D867848
:1011600059F0A1FE02C08BE201C080E2A7FC8DE233
:10117000B60190E00E94FA08891438F4B60180E3C1
:1011800090E00E94FA089A94F7CF8A94F301E80D50
:10119000F11D8081B60190E00E94FA088110F5CF20
:1011A000222009F442CEB60180E290E00E94FA08C3
:1011B0002A94F6CFF6018681978102C08FEF9FEFC8
:1011C0002B96E2E10C94B009FC010590615070404F
:1011D0000110D8F7809590958E0F9F1F0895FC0100
:1011E0006150704001900110D8F7809590958E0F56
:1011F0009F1F08950F931F93CF93DF93FB012381CC
:1012000021FD03C08FEF9FEF2CC022FF16C0468147
:101210005781248135814217530744F4A081B1815D
:101220009D012F5F3F4F318320838C93268137812F
:101230002F5F3F4F3783268314C08B01EC01FB01E6
:101240000084F185E02D0995892BE1F6D8011696E9
:101250008D919C911797019617969C938E93169754
:10126000CE01DF91CF911F910F910895FA01AA2726
:10127000283051F1203181F1E8946F936E7F6E5FD9
:101280007F4F8F4F9F4FAF4FB1E03ED0B4E03CD087
:10129000670F781F891F9A1FA11D680F791F8A1F6A
:1012A000911DA11D6A0F711D811D911DA11D20D0D1
:1012B00009F468943F912AE0269F11243019305D8B
:1012C0003193DEF6CF010895462F4770405D41937C
:1012D000B3E00FD0C9F7F6CF462F4F70405D4A33C9
:1012E00018F0495D31FD4052419302D0A9F7EACF91
:1012F000B4E0A6959795879577956795BA95C9F7C0
:1013000000976105710508959B01AC010A2E0694B2
:101310005795479537952795BA95C9F7620F731F6B
:10132000841F951FA01D08952F923F924F925F92A8
:101330006F927F928F929F92AF92BF92CF92DF92E5
:10134000EF92FF920F931F93CF93DF93CDB7DEB74A
:10135000CA1BDB0B0FB6F894DEBF0FBECDBF0994DE
:101360002A88398848885F846E847D848C849B8435
:10137000AA84B984C884DF80EE80FD800C811B8143
:10138000AA81B981CE0FD11D0FB6F894DEBF0FBE72
:0A139000CDBFED010895F894FFCFE2
:10139A004501450100000000DD01460174012A02F1
:1013AA00A5018301970123253035692D253035693B
:0E13BA007E0023253035692B253035697E00F5
:00000001FF
